{
  "_format": "hh-sol-artifact-1",
  "contractName": "NFTMarketplace",
  "sourceName": "contracts/NFTMarketplace.sol",
  "abi": [
    {
      "inputs": [],
      "stateMutability": "nonpayable",
      "type": "constructor"
    },
    {
      "anonymous": false,
      "inputs": [
        {
          "indexed": true,
          "internalType": "address",
          "name": "owner",
          "type": "address"
        },
        {
          "indexed": true,
          "internalType": "address",
          "name": "approved",
          "type": "address"
        },
        {
          "indexed": true,
          "internalType": "uint256",
          "name": "tokenId",
          "type": "uint256"
        }
      ],
      "name": "Approval",
      "type": "event"
    },
    {
      "anonymous": false,
      "inputs": [
        {
          "indexed": true,
          "internalType": "address",
          "name": "owner",
          "type": "address"
        },
        {
          "indexed": true,
          "internalType": "address",
          "name": "operator",
          "type": "address"
        },
        {
          "indexed": false,
          "internalType": "bool",
          "name": "approved",
          "type": "bool"
        }
      ],
      "name": "ApprovalForAll",
      "type": "event"
    },
    {
      "anonymous": false,
      "inputs": [
        {
          "indexed": true,
          "internalType": "uint256",
          "name": "tokenId",
          "type": "uint256"
        },
        {
          "indexed": true,
          "internalType": "address",
          "name": "owner",
          "type": "address"
        },
        {
          "indexed": true,
          "internalType": "address",
          "name": "seller",
          "type": "address"
        },
        {
          "indexed": false,
          "internalType": "uint256",
          "name": "price",
          "type": "uint256"
        },
        {
          "indexed": false,
          "internalType": "bool",
          "name": "currentlyListed",
          "type": "bool"
        }
      ],
      "name": "TokenListedSuccess",
      "type": "event"
    },
    {
      "anonymous": false,
      "inputs": [
        {
          "indexed": true,
          "internalType": "address",
          "name": "from",
          "type": "address"
        },
        {
          "indexed": true,
          "internalType": "address",
          "name": "to",
          "type": "address"
        },
        {
          "indexed": true,
          "internalType": "uint256",
          "name": "tokenId",
          "type": "uint256"
        }
      ],
      "name": "Transfer",
      "type": "event"
    },
    {
      "inputs": [
        {
          "internalType": "address",
          "name": "to",
          "type": "address"
        },
        {
          "internalType": "uint256",
          "name": "tokenId",
          "type": "uint256"
        }
      ],
      "name": "approve",
      "outputs": [],
      "stateMutability": "nonpayable",
      "type": "function"
    },
    {
      "inputs": [
        {
          "internalType": "address",
          "name": "owner",
          "type": "address"
        }
      ],
      "name": "balanceOf",
      "outputs": [
        {
          "internalType": "uint256",
          "name": "",
          "type": "uint256"
        }
      ],
      "stateMutability": "view",
      "type": "function"
    },
    {
      "inputs": [
        {
          "internalType": "string",
          "name": "tokenURI",
          "type": "string"
        },
        {
          "internalType": "uint256",
          "name": "price",
          "type": "uint256"
        }
      ],
      "name": "createToken",
      "outputs": [
        {
          "internalType": "uint256",
          "name": "",
          "type": "uint256"
        }
      ],
      "stateMutability": "payable",
      "type": "function"
    },
    {
      "inputs": [
        {
          "internalType": "uint256",
          "name": "tokenId",
          "type": "uint256"
        }
      ],
      "name": "executeSale",
      "outputs": [],
      "stateMutability": "payable",
      "type": "function"
    },
    {
      "inputs": [],
      "name": "getAllNFTs",
      "outputs": [
        {
          "components": [
            {
              "internalType": "uint256",
              "name": "tokenId",
              "type": "uint256"
            },
            {
              "internalType": "address payable",
              "name": "owner",
              "type": "address"
            },
            {
              "internalType": "address payable",
              "name": "seller",
              "type": "address"
            },
            {
              "internalType": "uint256",
              "name": "price",
              "type": "uint256"
            },
            {
              "internalType": "bool",
              "name": "currentlyListed",
              "type": "bool"
            }
          ],
          "internalType": "struct NFTMarketplace.ListedToken[]",
          "name": "",
          "type": "tuple[]"
        }
      ],
      "stateMutability": "view",
      "type": "function"
    },
    {
      "inputs": [
        {
          "internalType": "uint256",
          "name": "tokenId",
          "type": "uint256"
        }
      ],
      "name": "getApproved",
      "outputs": [
        {
          "internalType": "address",
          "name": "",
          "type": "address"
        }
      ],
      "stateMutability": "view",
      "type": "function"
    },
    {
      "inputs": [],
      "name": "getCurrentTokenId",
      "outputs": [
        {
          "internalType": "uint256",
          "name": "",
          "type": "uint256"
        }
      ],
      "stateMutability": "view",
      "type": "function"
    },
    {
      "inputs": [],
      "name": "getLatestIdToListedToken",
      "outputs": [
        {
          "components": [
            {
              "internalType": "uint256",
              "name": "tokenId",
              "type": "uint256"
            },
            {
              "internalType": "address payable",
              "name": "owner",
              "type": "address"
            },
            {
              "internalType": "address payable",
              "name": "seller",
              "type": "address"
            },
            {
              "internalType": "uint256",
              "name": "price",
              "type": "uint256"
            },
            {
              "internalType": "bool",
              "name": "currentlyListed",
              "type": "bool"
            }
          ],
          "internalType": "struct NFTMarketplace.ListedToken",
          "name": "",
          "type": "tuple"
        }
      ],
      "stateMutability": "view",
      "type": "function"
    },
    {
      "inputs": [],
      "name": "getListPrice",
      "outputs": [
        {
          "internalType": "uint256",
          "name": "",
          "type": "uint256"
        }
      ],
      "stateMutability": "view",
      "type": "function"
    },
    {
      "inputs": [
        {
          "internalType": "uint256",
          "name": "tokenId",
          "type": "uint256"
        }
      ],
      "name": "getListedTokenForId",
      "outputs": [
        {
          "components": [
            {
              "internalType": "uint256",
              "name": "tokenId",
              "type": "uint256"
            },
            {
              "internalType": "address payable",
              "name": "owner",
              "type": "address"
            },
            {
              "internalType": "address payable",
              "name": "seller",
              "type": "address"
            },
            {
              "internalType": "uint256",
              "name": "price",
              "type": "uint256"
            },
            {
              "internalType": "bool",
              "name": "currentlyListed",
              "type": "bool"
            }
          ],
          "internalType": "struct NFTMarketplace.ListedToken",
          "name": "",
          "type": "tuple"
        }
      ],
      "stateMutability": "view",
      "type": "function"
    },
    {
      "inputs": [],
      "name": "getMyNFTs",
      "outputs": [
        {
          "components": [
            {
              "internalType": "uint256",
              "name": "tokenId",
              "type": "uint256"
            },
            {
              "internalType": "address payable",
              "name": "owner",
              "type": "address"
            },
            {
              "internalType": "address payable",
              "name": "seller",
              "type": "address"
            },
            {
              "internalType": "uint256",
              "name": "price",
              "type": "uint256"
            },
            {
              "internalType": "bool",
              "name": "currentlyListed",
              "type": "bool"
            }
          ],
          "internalType": "struct NFTMarketplace.ListedToken[]",
          "name": "",
          "type": "tuple[]"
        }
      ],
      "stateMutability": "view",
      "type": "function"
    },
    {
      "inputs": [
        {
          "internalType": "address",
          "name": "owner",
          "type": "address"
        },
        {
          "internalType": "address",
          "name": "operator",
          "type": "address"
        }
      ],
      "name": "isApprovedForAll",
      "outputs": [
        {
          "internalType": "bool",
          "name": "",
          "type": "bool"
        }
      ],
      "stateMutability": "view",
      "type": "function"
    },
    {
      "inputs": [],
      "name": "name",
      "outputs": [
        {
          "internalType": "string",
          "name": "",
          "type": "string"
        }
      ],
      "stateMutability": "view",
      "type": "function"
    },
    {
      "inputs": [
        {
          "internalType": "uint256",
          "name": "tokenId",
          "type": "uint256"
        }
      ],
      "name": "ownerOf",
      "outputs": [
        {
          "internalType": "address",
          "name": "",
          "type": "address"
        }
      ],
      "stateMutability": "view",
      "type": "function"
    },
    {
      "inputs": [
        {
          "internalType": "address",
          "name": "from",
          "type": "address"
        },
        {
          "internalType": "address",
          "name": "to",
          "type": "address"
        },
        {
          "internalType": "uint256",
          "name": "tokenId",
          "type": "uint256"
        }
      ],
      "name": "safeTransferFrom",
      "outputs": [],
      "stateMutability": "nonpayable",
      "type": "function"
    },
    {
      "inputs": [
        {
          "internalType": "address",
          "name": "from",
          "type": "address"
        },
        {
          "internalType": "address",
          "name": "to",
          "type": "address"
        },
        {
          "internalType": "uint256",
          "name": "tokenId",
          "type": "uint256"
        },
        {
          "internalType": "bytes",
          "name": "data",
          "type": "bytes"
        }
      ],
      "name": "safeTransferFrom",
      "outputs": [],
      "stateMutability": "nonpayable",
      "type": "function"
    },
    {
      "inputs": [
        {
          "internalType": "address",
          "name": "operator",
          "type": "address"
        },
        {
          "internalType": "bool",
          "name": "approved",
          "type": "bool"
        }
      ],
      "name": "setApprovalForAll",
      "outputs": [],
      "stateMutability": "nonpayable",
      "type": "function"
    },
    {
      "inputs": [
        {
          "internalType": "bytes4",
          "name": "interfaceId",
          "type": "bytes4"
        }
      ],
      "name": "supportsInterface",
      "outputs": [
        {
          "internalType": "bool",
          "name": "",
          "type": "bool"
        }
      ],
      "stateMutability": "view",
      "type": "function"
    },
    {
      "inputs": [],
      "name": "symbol",
      "outputs": [
        {
          "internalType": "string",
          "name": "",
          "type": "string"
        }
      ],
      "stateMutability": "view",
      "type": "function"
    },
    {
      "inputs": [
        {
          "internalType": "uint256",
          "name": "tokenId",
          "type": "uint256"
        }
      ],
      "name": "tokenURI",
      "outputs": [
        {
          "internalType": "string",
          "name": "",
          "type": "string"
        }
      ],
      "stateMutability": "view",
      "type": "function"
    },
    {
      "inputs": [
        {
          "internalType": "address",
          "name": "from",
          "type": "address"
        },
        {
          "internalType": "address",
          "name": "to",
          "type": "address"
        },
        {
          "internalType": "uint256",
          "name": "tokenId",
          "type": "uint256"
        }
      ],
      "name": "transferFrom",
      "outputs": [],
      "stateMutability": "nonpayable",
      "type": "function"
    },
    {
      "inputs": [
        {
          "internalType": "uint256",
          "name": "_listPrice",
          "type": "uint256"
        }
      ],
      "name": "upadateListPrice",
      "outputs": [],
      "stateMutability": "payable",
      "type": "function"
    }
  ],
  "bytecode": "0x6080604052662386f26fc10000600a553480156200001c57600080fd5b50604080518082018252600e81526d4e46544d61726b6574706c61636560901b6020808301918252835180850190945260048452634e46544d60e01b9084015281519192916200006f91600091620000a0565b50805162000085906001906020840190620000a0565b5050600780546001600160a01b031916331790555062000183565b828054620000ae9062000146565b90600052602060002090601f016020900481019282620000d257600085556200011d565b82601f10620000ed57805160ff19168380011785556200011d565b828001600101855582156200011d579182015b828111156200011d57825182559160200191906001019062000100565b506200012b9291506200012f565b5090565b5b808211156200012b576000815560010162000130565b600181811c908216806200015b57607f821691505b602082108114156200017d57634e487b7160e01b600052602260045260246000fd5b50919050565b61210e80620001936000396000f3fe6080604052600436106101355760003560e01c806370a08231116100ab578063a22cb4651161006f578063a22cb46514610340578063b88d4fde14610360578063c87b56dd14610380578063d1a88ae5146103a0578063e0391b09146103b5578063e985e9c5146103ca57600080fd5b806370a08231146102b857806372b3b620146102d85780638e264590146102eb57806395d89b41146103185780639b1225c41461032d57600080fd5b806342842e0e116100fd57806342842e0e1461020b578063561892361461022b578063629cb2e41461024e5780636352211e1461027057806368f1945f146102905780636ca634c1146102a557600080fd5b806301ffc9a71461013a57806306fdde031461016f578063081812fc14610191578063095ea7b3146101c957806323b872dd146101eb575b600080fd5b34801561014657600080fd5b5061015a610155366004611d1a565b610413565b60405190151581526020015b60405180910390f35b34801561017b57600080fd5b50610184610465565b6040516101669190611ee6565b34801561019d57600080fd5b506101b16101ac366004611da8565b6104f7565b6040516001600160a01b039091168152602001610166565b3480156101d557600080fd5b506101e96101e4366004611cf1565b61051e565b005b3480156101f757600080fd5b506101e9610206366004611c03565b610639565b34801561021757600080fd5b506101e9610226366004611c03565b61066a565b34801561023757600080fd5b50610240610685565b604051908152602001610166565b34801561025a57600080fd5b50610263610695565b6040516101669190611e98565b34801561027c57600080fd5b506101b161028b366004611da8565b610903565b34801561029c57600080fd5b50600a54610240565b6101e96102b3366004611da8565b610963565b3480156102c457600080fd5b506102406102d3366004611bb7565b610a35565b6102406102e6366004611d52565b610abb565b3480156102f757600080fd5b5061030b610306366004611da8565b610afc565b6040516101669190611f99565b34801561032457600080fd5b50610184610b66565b6101e961033b366004611da8565b610b75565b34801561034c57600080fd5b506101e961035b366004611cb7565b610d16565b34801561036c57600080fd5b506101e961037b366004611c3e565b610d25565b34801561038c57600080fd5b5061018461039b366004611da8565b610d57565b3480156103ac57600080fd5b5061030b610e68565b3480156103c157600080fd5b50610263610edf565b3480156103d657600080fd5b5061015a6103e5366004611bd1565b6001600160a01b03918216600090815260056020908152604080832093909416825291909152205460ff1690565b60006001600160e01b031982166380ac58cd60e01b148061044457506001600160e01b03198216635b5e139f60e01b145b8061045f57506301ffc9a760e01b6001600160e01b03198316145b92915050565b60606000805461047490612016565b80601f01602080910402602001604051908101604052809291908181526020018280546104a090612016565b80156104ed5780601f106104c2576101008083540402835291602001916104ed565b820191906000526020600020905b8154815290600101906020018083116104d057829003601f168201915b5050505050905090565b600061050282611022565b506000908152600460205260409020546001600160a01b031690565b600061052982610903565b9050806001600160a01b0316836001600160a01b0316141561059c5760405162461bcd60e51b815260206004820152602160248201527f4552433732313a20617070726f76616c20746f2063757272656e74206f776e656044820152603960f91b60648201526084015b60405180910390fd5b336001600160a01b03821614806105b857506105b881336103e5565b61062a5760405162461bcd60e51b815260206004820152603e60248201527f4552433732313a20617070726f76652063616c6c6572206973206e6f7420746f60448201527f6b656e206f776e6572206e6f7220617070726f76656420666f7220616c6c00006064820152608401610593565b6106348383611084565b505050565b61064333826110f2565b61065f5760405162461bcd60e51b815260040161059390611f4b565b610634838383611170565b61063483838360405180602001604052806000815250610d25565b600061069060085490565b905090565b60603360006106a360085490565b905060008060005b8381101561074d576001600160a01b038516600b60006106cc846001611fa7565b81526020810191909152604001600020600101546001600160a01b0316148061072857506001600160a01b038516600b6000610709846001611fa7565b81526020810191909152604001600020600201546001600160a01b0316145b1561073b578261073781612051565b9350505b8061074581612051565b9150506106ab565b5060008267ffffffffffffffff81111561077757634e487b7160e01b600052604160045260246000fd5b6040519080825280602002602001820160405280156107b057816020015b61079d611a5e565b8152602001906001900390816107955790505b50905060005b848110156108f9576001600160a01b038616600b60006107d7846001611fa7565b81526020810191909152604001600020600101546001600160a01b0316148061083357506001600160a01b038616600b6000610814846001611fa7565b81526020810191909152604001600020600201546001600160a01b0316145b156108e7576000600b81610848846001611fa7565b81526020808201929092526040908101600020815160a0810183528154815260018201546001600160a01b0390811694820194909452600282015490931691830191909152600381015460608301526004015460ff1615156080820152835190915081908490869081106108cc57634e487b7160e01b600052603260045260246000fd5b602002602001018190525083806108e290612051565b945050505b806108f181612051565b9150506107b6565b5095945050505050565b6000818152600260205260408120546001600160a01b03168061045f5760405162461bcd60e51b8152602060048201526018602482015277115490cdcc8c4e881a5b9d985b1a59081d1bdad95b88125160421b6044820152606401610593565b6007546001600160a01b0316336001600160a01b0316146109c65760405162461bcd60e51b815260206004820181905260248201527f4f6e6c79206f776e65722063616e2063616c6c207468652066756e6374696f6e6044820152606401610593565b6007546001600160a01b03163314610a305760405162461bcd60e51b815260206004820152602760248201527f4f6e6c79206f776e65722063616e2075706461746520746865206c697374696e6044820152666720707269636560c81b6064820152608401610593565b600a55565b60006001600160a01b038216610a9f5760405162461bcd60e51b815260206004820152602960248201527f4552433732313a2061646472657373207a65726f206973206e6f7420612076616044820152683634b21037bbb732b960b91b6064820152608401610593565b506001600160a01b031660009081526003602052604090205490565b600080610ac760085490565b9050610ad7600880546001019055565b610ae1338261130c565b610aeb8185611326565b610af581846113c0565b9392505050565b610b04611a5e565b506000908152600b6020908152604091829020825160a0810184528154815260018201546001600160a01b03908116938201939093526002820154909216928201929092526003820154606082015260049091015460ff161515608082015290565b60606001805461047490612016565b6000818152600b6020526040902060038101546002909101546001600160a01b0316348214610bff5760405162461bcd60e51b815260206004820152603060248201527f506c65736520627579207769746820746865206c69737420707269636520746f60448201526f10333ab334b6103a34329037b93232b960811b6064820152608401610593565b6000838152600b602052604090206004015460ff16610c605760405162461bcd60e51b815260206004820152601960248201527f4f6e6c792062757920746865206c697374656420746f6b656e000000000000006044820152606401610593565b6000838152600b602052604090206002810180546001600160a01b031916339081179091556004909101805460ff19169055610c9e90309085611170565b600754600a546040516001600160a01b039092169181156108fc0291906000818181858888f19350505050158015610cda573d6000803e3d6000fd5b506040516001600160a01b038216903480156108fc02916000818181858888f19350505050158015610d10573d6000803e3d6000fd5b50505050565b610d2133838361154d565b5050565b610d2f33836110f2565b610d4b5760405162461bcd60e51b815260040161059390611f4b565b610d108484848461161c565b6060610d6282611022565b60008281526006602052604081208054610d7b90612016565b80601f0160208091040260200160405190810160405280929190818152602001828054610da790612016565b8015610df45780601f10610dc957610100808354040283529160200191610df4565b820191906000526020600020905b815481529060010190602001808311610dd757829003601f168201915b505050505090506000610e1260408051602081019091526000815290565b9050805160001415610e25575092915050565b815115610e57578082604051602001610e3f929190611e2c565b60405160208183030381529060405292505050919050565b610e608461164f565b949350505050565b610e70611a5e565b6000610e7b60085490565b6000908152600b6020908152604091829020825160a0810184528154815260018201546001600160a01b03908116938201939093526002820154909216928201929092526003820154606082015260049091015460ff161515608082015292915050565b60606000610eec60085490565b905060008167ffffffffffffffff811115610f1757634e487b7160e01b600052604160045260246000fd5b604051908082528060200260200182016040528015610f5057816020015b610f3d611a5e565b815260200190600190039081610f355790505b5090506000805b83811015611019576000610f6c826001611fa7565b6000818152600b6020908152604091829020825160a0810184528154815260018201546001600160a01b03908116938201939093526002820154909216928201929092526003820154606082015260049091015460ff1615156080820152909150808585610fd981612051565b965081518110610ff957634e487b7160e01b600052603260045260246000fd5b60200260200101819052505050808061101190612051565b915050610f57565b50909392505050565b6000818152600260205260409020546001600160a01b03166110815760405162461bcd60e51b8152602060048201526018602482015277115490cdcc8c4e881a5b9d985b1a59081d1bdad95b88125160421b6044820152606401610593565b50565b600081815260046020526040902080546001600160a01b0319166001600160a01b03841690811790915581906110b982610903565b6001600160a01b03167f8c5be1e5ebec7d5bd14f71427d1e84f3dd0314c0f7b2291e5b200ac8c7c3b92560405160405180910390a45050565b6000806110fe83610903565b9050806001600160a01b0316846001600160a01b0316148061114557506001600160a01b0380821660009081526005602090815260408083209388168352929052205460ff165b80610e605750836001600160a01b031661115e846104f7565b6001600160a01b031614949350505050565b826001600160a01b031661118382610903565b6001600160a01b0316146111e75760405162461bcd60e51b815260206004820152602560248201527f4552433732313a207472616e736665722066726f6d20696e636f72726563742060448201526437bbb732b960d91b6064820152608401610593565b6001600160a01b0382166112495760405162461bcd60e51b8152602060048201526024808201527f4552433732313a207472616e7366657220746f20746865207a65726f206164646044820152637265737360e01b6064820152608401610593565b611254600082611084565b6001600160a01b038316600090815260036020526040812080546001929061127d908490611fd3565b90915550506001600160a01b03821660009081526003602052604081208054600192906112ab908490611fa7565b909155505060008181526002602052604080822080546001600160a01b0319166001600160a01b0386811691821790925591518493918716917fddf252ad1be2c89b69c2b068fc378daa952ba7f163c4a11628f55a4df523b3ef91a4505050565b610d218282604051806020016040528060008152506116c2565b6000828152600260205260409020546001600160a01b03166113a15760405162461bcd60e51b815260206004820152602e60248201527f45524337323155524953746f726167653a2055524920736574206f66206e6f6e60448201526d32bc34b9ba32b73a103a37b5b2b760911b6064820152608401610593565b6000828152600660209081526040909120825161063492840190611a8c565b600a54341461141d5760405162461bcd60e51b8152602060048201526024808201527f446f6573206e6f74206861766520656e6f7567682045544820666f72206c697360448201526374696e6760e01b6064820152608401610593565b6000341161146d5760405162461bcd60e51b815260206004820152601c60248201527f446f206e6f742073656e64206e65676174697665206f72207a65726f000000006044820152606401610593565b6040805160a081018252838152306020808301828152338486018181526060860188815260016080880181815260008c8152600b9097529890952096518755925193860180546001600160a01b039586166001600160a01b03199182161790915590516002870180549190951691161790925551600384015592516004909201805492151560ff199093169290921790915561150a919084611170565b60408051828152600160208201523391309185917f9339409317fd01fabff48b703019016f49159bacc801ae872d2ca637d226e4c0910160405180910390a45050565b816001600160a01b0316836001600160a01b031614156115af5760405162461bcd60e51b815260206004820152601960248201527f4552433732313a20617070726f766520746f2063616c6c6572000000000000006044820152606401610593565b6001600160a01b03838116600081815260056020908152604080832094871680845294825291829020805460ff191686151590811790915591519182527f17307eab39ab6107e8899845ad3d59bd9653f200f220920489ca2b5937696c31910160405180910390a3505050565b611627848484611170565b611633848484846116f5565b610d105760405162461bcd60e51b815260040161059390611ef9565b606061165a82611022565b600061167160408051602081019091526000815290565b905060008151116116915760405180602001604052806000815250610af5565b8061169b84611802565b6040516020016116ac929190611e2c565b6040516020818303038152906040529392505050565b6116cc838361191c565b6116d960008484846116f5565b6106345760405162461bcd60e51b815260040161059390611ef9565b60006001600160a01b0384163b156117f757604051630a85bd0160e11b81526001600160a01b0385169063150b7a0290611739903390899088908890600401611e5b565b602060405180830381600087803b15801561175357600080fd5b505af1925050508015611783575060408051601f3d908101601f1916820190925261178091810190611d36565b60015b6117dd573d8080156117b1576040519150601f19603f3d011682016040523d82523d6000602084013e6117b6565b606091505b5080516117d55760405162461bcd60e51b815260040161059390611ef9565b805181602001fd5b6001600160e01b031916630a85bd0160e11b149050610e60565b506001949350505050565b6060816118265750506040805180820190915260018152600360fc1b602082015290565b8160005b8115611850578061183a81612051565b91506118499050600a83611fbf565b915061182a565b60008167ffffffffffffffff81111561187957634e487b7160e01b600052604160045260246000fd5b6040519080825280601f01601f1916602001820160405280156118a3576020820181803683370190505b5090505b8415610e60576118b8600183611fd3565b91506118c5600a8661206c565b6118d0906030611fa7565b60f81b8183815181106118f357634e487b7160e01b600052603260045260246000fd5b60200101906001600160f81b031916908160001a905350611915600a86611fbf565b94506118a7565b6001600160a01b0382166119725760405162461bcd60e51b815260206004820181905260248201527f4552433732313a206d696e7420746f20746865207a65726f20616464726573736044820152606401610593565b6000818152600260205260409020546001600160a01b0316156119d75760405162461bcd60e51b815260206004820152601c60248201527f4552433732313a20746f6b656e20616c7265616479206d696e746564000000006044820152606401610593565b6001600160a01b0382166000908152600360205260408120805460019290611a00908490611fa7565b909155505060008181526002602052604080822080546001600160a01b0319166001600160a01b03861690811790915590518392907fddf252ad1be2c89b69c2b068fc378daa952ba7f163c4a11628f55a4df523b3ef908290a45050565b6040805160a08101825260008082526020820181905291810182905260608101829052608081019190915290565b828054611a9890612016565b90600052602060002090601f016020900481019282611aba5760008555611b00565b82601f10611ad357805160ff1916838001178555611b00565b82800160010185558215611b00579182015b82811115611b00578251825591602001919060010190611ae5565b50611b0c929150611b10565b5090565b5b80821115611b0c5760008155600101611b11565b600067ffffffffffffffff80841115611b4057611b406120ac565b604051601f8501601f19908116603f01168101908282118183101715611b6857611b686120ac565b81604052809350858152868686011115611b8157600080fd5b858560208301376000602087830101525050509392505050565b80356001600160a01b0381168114611bb257600080fd5b919050565b600060208284031215611bc8578081fd5b610af582611b9b565b60008060408385031215611be3578081fd5b611bec83611b9b565b9150611bfa60208401611b9b565b90509250929050565b600080600060608486031215611c17578081fd5b611c2084611b9b565b9250611c2e60208501611b9b565b9150604084013590509250925092565b60008060008060808587031215611c53578081fd5b611c5c85611b9b565b9350611c6a60208601611b9b565b925060408501359150606085013567ffffffffffffffff811115611c8c578182fd5b8501601f81018713611c9c578182fd5b611cab87823560208401611b25565b91505092959194509250565b60008060408385031215611cc9578182fd5b611cd283611b9b565b915060208301358015158114611ce6578182fd5b809150509250929050565b60008060408385031215611d03578182fd5b611d0c83611b9b565b946020939093013593505050565b600060208284031215611d2b578081fd5b8135610af5816120c2565b600060208284031215611d47578081fd5b8151610af5816120c2565b60008060408385031215611d64578182fd5b823567ffffffffffffffff811115611d7a578283fd5b8301601f81018513611d8a578283fd5b611d9985823560208401611b25565b95602094909401359450505050565b600060208284031215611db9578081fd5b5035919050565b60008151808452611dd8816020860160208601611fea565b601f01601f19169290920160200192915050565b805182526020808201516001600160a01b039081169184019190915260408083015190911690830152606080820151908301526080908101511515910152565b60008351611e3e818460208801611fea565b835190830190611e52818360208801611fea565b01949350505050565b6001600160a01b0385811682528416602082015260408101839052608060608201819052600090611e8e90830184611dc0565b9695505050505050565b6020808252825182820181905260009190848201906040850190845b81811015611eda57611ec7838551611dec565b9284019260a09290920191600101611eb4565b50909695505050505050565b602081526000610af56020830184611dc0565b60208082526032908201527f4552433732313a207472616e7366657220746f206e6f6e20455243373231526560408201527131b2b4bb32b91034b6b83632b6b2b73a32b960711b606082015260800190565b6020808252602e908201527f4552433732313a2063616c6c6572206973206e6f7420746f6b656e206f776e6560408201526d1c881b9bdc88185c1c1c9bdd995960921b606082015260800190565b60a0810161045f8284611dec565b60008219821115611fba57611fba612080565b500190565b600082611fce57611fce612096565b500490565b600082821015611fe557611fe5612080565b500390565b60005b83811015612005578181015183820152602001611fed565b83811115610d105750506000910152565b600181811c9082168061202a57607f821691505b6020821081141561204b57634e487b7160e01b600052602260045260246000fd5b50919050565b600060001982141561206557612065612080565b5060010190565b60008261207b5761207b612096565b500690565b634e487b7160e01b600052601160045260246000fd5b634e487b7160e01b600052601260045260246000fd5b634e487b7160e01b600052604160045260246000fd5b6001600160e01b03198116811461108157600080fdfea2646970667358221220165b821256bb5a740c9b570b74619375dec1972885348b67435541a3469d31fe64736f6c63430008040033",
  "linkReferences": {},
  "deployedLinkReferences": {}
}